:060000000A128A11122809
:10000800FE00030EF1000408F2000A08F300831250
:1000180003137F08F4000A128A1146280A128A116B
:100028005B288B170B178B16073083160313810079
:100038003B308312031381008316031306108610C6
:100048000611262883120615F508031D2C282D28CD
:1000580030280614861030287508643A031D3528A0
:10006800362839280610861439287508C83A031D19
:100078003E283F282628F5012628262826280A1261
:100088008A1112280B1D49284A2850280130F000EF
:100098007008F5070B1150287408FF0073088A00D0
:1000A80072088400710E8300FE0E7E0E0900F501B1
:0800B80083010A128A111528C8
:02400E00BAFFF7
:00000001FF
